:020000040800F2
:1000000070060020290200083102000833020008AF
:10001000350200083702000839020008000000001D
:100020000000000000000000000000003B0200088B
:100030003D020008000000003F02000841020008E5
:10004000430200084302000843020008430200087C
:10005000430200084302000843020008430200086C
:10006000430200084302000843020008430200085C
:10007000430200084302000843020008430200084C
:10008000430200084302000843020008430200083C
:10009000430200084302000843020008430200082C
:1000A000430200084302000843020008430200081C
:1000B000430200084302000843020008430200080C
:1000C00043020008430200084302000843020008FC
:1000D00043020008430200084302000843020008EC
:1000E00043020008430200084302000843020008DC
:1000F00043020008430200084302000843020008CC
:1001000043020008430200084302000843020008BB
:1001100043020008430200084302000843020008AB
:10012000430200084302000843020008430200089B
:10013000430200084302000843020008430200088B
:10014000430200084302000843020008430200087B
:10015000430200084302000843020008430200086B
:10016000430200084302000843020008430200085B
:100170004302000843020008430200080000000098
:10018000430200084302000800F002F800F03CF8C7
:100190000AA090E8000C82448344AAF10107DA45E2
:1001A00001D100F031F8AFF2090EBAE80F0013F0F8
:1001B000010F18BFFB1A43F0010318472C0400007D
:1001C0004C040000103A24BF78C878C1FAD852070E
:1001D00024BF30C830C144BF04680C6070470000C1
:1001E0000023002400250026103A28BF78C1FBD840
:1001F000520728BF30C148BF0B6070471FB500F0E1
:10020000EEF91FBD10B510BD00F031F81146FFF733
:10021000F5FF00F02FF900F04FF803B4FFF7F2FFFD
:1002200003BC00F057F80000094880470948004720
:10023000FEE7FEE7FEE7FEE7FEE7FEE7FEE7FEE796
:10024000FEE7FEE704480549054A064B70470000F3
:1002500011040008890100087000002070060020C9
:10026000700200207002002070477047704775468A
:1002700000F02CF8AE4605006946534620F0070012
:10028000854618B020B5FFF7DDFFBDE820404FF0F0
:1002900000064FF000074FF000084FF0000B21F070
:1002A0000701AC46ACE8C009ACE8C009ACE8C0093D
:1002B000ACE8C0098D46704710B50446AFF3008026
:1002C0002046BDE81040FFF7A8BF00000048704777
:1002D0001000002001491820ABBEFEE726000200F6
:1002E000704700004848006840F480304649086084
:1002F00000E000BF4448006800F400300028F8D057
:100300004248006840F20F710843404908603E4887
:10031000001D006840F480003B49091D0860081F6B
:10032000006820F08070091F0860081D006820F038
:100330003F00091D08600846006840F0040008609E
:100340000846006820F4403008600846006847F618
:10035000C07188432C49091D08600846006840F4B4
:10036000007008600846006840F4006008600846B5
:10037000006840F4005008600846006820F0706093
:1003800008600846006840F0E0600860081D0068EA
:1003900020F0F000091D0860084600680860084663
:1003A000006820F4E05008600846006840F4A0505F
:1003B00008600846006820F460400860084600684D
:1003C00040F4004008601048006840F080700E491A
:1003D000086000E000BF0C48006800F000700028D2
:1003E000F8D009480830006840F00200064908319A
:1003F000086000E000BF04480830006800F00C000E
:100400000828F7D17047000000380240003C024045
:100410001448006840F470001249086012480068EF
:1004200040F001001049086000200F4908310860C1
:100430000D4800680D4908400B4908600C48091D2B
:100440000860081F006820F48020091F0860002051
:1004500005490C3108604FF000600249803908609E
:100460007047000088ED00E000380240FFFFF6FE14
:1004700010300024FFF7CCFFFFF734FF1648006868
:1004800040F080701449086024E00020134948605F
:100490000846006840F001000860002002E000BF4C
:1004A000411C88B20E4909688842F8D30B4840685D
:1004B0000C490860084690ED000AB8EE400ADFEDEE
:1004C0000A0A80EE201A11EE104A204600F016F8B3
:1004D000064A03C2D9E70000FCED00E0001000E08E
:1004E0000400002000000020A037204D080000205C
:1004F0000808A0F500114FEA3101704743004FEAA8
:10050000D30C4FEA3C0C43401FBF40070CF1605135
:1005100013F0FE4F70471CF0006F03D100200CF069
:10052000004170470CF0004343EA507010B540EAB8
:10053000CC0000F00EF800BF000000924FEA00016E
:10054000FFF7D6BF4FF000414FF00000A1F50021AA
:1005500070470EF1020E2EF0030E5EF8044B24429B
:1005600004D44FEA4102B2F17F4F11D84FEA400361
:10057000B3F17F4F0CD80ED14FEAD07CB2F17F4F50
:100580000CEB4C0C0CF1020C08BF4CEBD17C04E0E2
:100590004FF0080C01E04FEAD17C0CEB4C0324FA3D
:1005A00003F404F00704B4F1040C06D20EEB840C3F
:1005B000BDE810404CF0010C6047DFE80CF0070884
:1005C00002024FF00040A0F5800010BD0846420036
:1005D00018BFD2F1807288BF00F0004010BD4FF00C
:1005E0004070E1EE100A7047080600080000002085
:1005F00010000000C40100081806000810000020C8
:1006000060060000E001000800000000000000009B
:080610000000000000000000E2
:0400000508000229C4
:00000001FF
